{
  "_format": "hh-sol-artifact-1",
  "contractName": "GrantManager",
  "sourceName": "contracts/GrantManager.sol",
  "address": "0x63aB4520B0dD24c11122e21b637B1bCAD0A7415b",
  "abi": [
    {
      "inputs": [],
      "stateMutability": "nonpayable",
      "type": "constructor"
    },
    {
      "inputs": [
        {
          "internalType": "address",
          "name": "owner",
          "type": "address"
        }
      ],
      "name": "OwnableInvalidOwner",
      "type": "error"
    },
    {
      "inputs": [
        {
          "internalType": "address",
          "name": "account",
          "type": "address"
        }
      ],
      "name": "OwnableUnauthorizedAccount",
      "type": "error"
    },
    {
      "anonymous": false,
      "inputs": [
        {
          "indexed": true,
          "internalType": "uint256",
          "name": "grantId",
          "type": "uint256"
        },
        {
          "indexed": true,
          "internalType": "uint256",
          "name": "projectId",
          "type": "uint256"
        }
      ],
      "name": "NewEligibleProject",
      "type": "event"
    },
    {
      "anonymous": false,
      "inputs": [
        {
          "indexed": true,
          "internalType": "uint256",
          "name": "grantId",
          "type": "uint256"
        },
        {
          "indexed": true,
          "internalType": "uint256",
          "name": "projectId",
          "type": "uint256"
        },
        {
          "indexed": false,
          "internalType": "string",
          "name": "title",
          "type": "string"
        }
      ],
      "name": "NewGrantProject",
      "type": "event"
    },
    {
      "anonymous": false,
      "inputs": [
        {
          "indexed": true,
          "internalType": "uint256",
          "name": "grantId",
          "type": "uint256"
        },
        {
          "indexed": false,
          "internalType": "string",
          "name": "title",
          "type": "string"
        }
      ],
      "name": "NewGrantProposal",
      "type": "event"
    },
    {
      "anonymous": false,
      "inputs": [
        {
          "indexed": true,
          "internalType": "address",
          "name": "previousOwner",
          "type": "address"
        },
        {
          "indexed": true,
          "internalType": "address",
          "name": "newOwner",
          "type": "address"
        }
      ],
      "name": "OwnershipTransferred",
      "type": "event"
    },
    {
      "inputs": [
        {
          "internalType": "uint64",
          "name": "sequence",
          "type": "uint64"
        },
        {
          "internalType": "address",
          "name": "provider",
          "type": "address"
        },
        {
          "internalType": "bytes32",
          "name": "randomNumber",
          "type": "bytes32"
        }
      ],
      "name": "_entropyCallback",
      "outputs": [],
      "stateMutability": "nonpayable",
      "type": "function"
    },
    {
      "inputs": [
        {
          "internalType": "uint256",
          "name": "grantProposalId",
          "type": "uint256"
        },
        {
          "internalType": "address[]",
          "name": "_teams",
          "type": "address[]"
        },
        {
          "internalType": "string",
          "name": "_title",
          "type": "string"
        },
        {
          "internalType": "string",
          "name": "_description",
          "type": "string"
        }
      ],
      "name": "applyGrantProposal",
      "outputs": [],
      "stateMutability": "nonpayable",
      "type": "function"
    },
    {
      "inputs": [
        {
          "internalType": "string",
          "name": "_title",
          "type": "string"
        },
        {
          "internalType": "string",
          "name": "_description",
          "type": "string"
        },
        {
          "internalType": "uint256",
          "name": "_numberSelectedProject",
          "type": "uint256"
        },
        {
          "internalType": "uint256",
          "name": "_endApplyTime",
          "type": "uint256"
        }
      ],
      "name": "createGrantProposal",
      "outputs": [],
      "stateMutability": "payable",
      "type": "function"
    },
    {
      "inputs": [],
      "name": "currentGrantId",
      "outputs": [
        {
          "internalType": "uint256",
          "name": "",
          "type": "uint256"
        }
      ],
      "stateMutability": "view",
      "type": "function"
    },
    {
      "inputs": [
        {
          "internalType": "uint256",
          "name": "grantProposalId",
          "type": "uint256"
        },
        {
          "internalType": "bytes32",
          "name": "randomNumber",
          "type": "bytes32"
        }
      ],
      "name": "endApplication",
      "outputs": [],
      "stateMutability": "payable",
      "type": "function"
    },
    {
      "inputs": [
        {
          "internalType": "uint256",
          "name": "grantId",
          "type": "uint256"
        },
        {
          "internalType": "uint256",
          "name": "projectId",
          "type": "uint256"
        }
      ],
      "name": "getGrantPropositionProjects",
      "outputs": [
        {
          "components": [
            {
              "internalType": "uint256",
              "name": "grantId",
              "type": "uint256"
            },
            {
              "internalType": "uint256",
              "name": "projectId",
              "type": "uint256"
            },
            {
              "internalType": "address[]",
              "name": "teams",
              "type": "address[]"
            },
            {
              "internalType": "string",
              "name": "title",
              "type": "string"
            },
            {
              "internalType": "string",
              "name": "description",
              "type": "string"
            },
            {
              "internalType": "uint256",
              "name": "creationTime",
              "type": "uint256"
            },
            {
              "internalType": "enum ProjectStatus",
              "name": "status",
              "type": "uint8"
            }
          ],
          "internalType": "struct ProjectGrantProposal",
          "name": "",
          "type": "tuple"
        }
      ],
      "stateMutability": "view",
      "type": "function"
    },
    {
      "inputs": [
        {
          "internalType": "uint256",
          "name": "",
          "type": "uint256"
        }
      ],
      "name": "grantPropositions",
      "outputs": [
        {
          "internalType": "uint256",
          "name": "id",
          "type": "uint256"
        },
        {
          "internalType": "string",
          "name": "title",
          "type": "string"
        },
        {
          "internalType": "string",
          "name": "description",
          "type": "string"
        },
        {
          "internalType": "uint256",
          "name": "numberSelectedProject",
          "type": "uint256"
        },
        {
          "internalType": "uint256",
          "name": "prize",
          "type": "uint256"
        },
        {
          "internalType": "uint256",
          "name": "creationTime",
          "type": "uint256"
        },
        {
          "internalType": "uint256",
          "name": "endApplyTime",
          "type": "uint256"
        },
        {
          "internalType": "uint256",
          "name": "numberSubmittedProject",
          "type": "uint256"
        },
        {
          "internalType": "address",
          "name": "owner",
          "type": "address"
        }
      ],
      "stateMutability": "view",
      "type": "function"
    },
    {
      "inputs": [],
      "name": "owner",
      "outputs": [
        {
          "internalType": "address",
          "name": "",
          "type": "address"
        }
      ],
      "stateMutability": "view",
      "type": "function"
    },
    {
      "inputs": [],
      "name": "renounceOwnership",
      "outputs": [],
      "stateMutability": "nonpayable",
      "type": "function"
    },
    {
      "inputs": [
        {
          "internalType": "uint256",
          "name": "grantProposalId",
          "type": "uint256"
        }
      ],
      "name": "selectProject",
      "outputs": [],
      "stateMutability": "nonpayable",
      "type": "function"
    },
    {
      "inputs": [
        {
          "internalType": "uint256",
          "name": "grantProposalId",
          "type": "uint256"
        },
        {
          "internalType": "uint256",
          "name": "projectId",
          "type": "uint256"
        }
      ],
      "name": "setEligibleProject",
      "outputs": [],
      "stateMutability": "nonpayable",
      "type": "function"
    },
    {
      "inputs": [
        {
          "internalType": "uint256",
          "name": "grantProposalId",
          "type": "uint256"
        }
      ],
      "name": "setEndTime",
      "outputs": [],
      "stateMutability": "nonpayable",
      "type": "function"
    },
    {
      "inputs": [
        {
          "internalType": "address",
          "name": "newOwner",
          "type": "address"
        }
      ],
      "name": "transferOwnership",
      "outputs": [],
      "stateMutability": "nonpayable",
      "type": "function"
    }
  ],
  "bytecode": "0x6080604052734821932d0cdd71225a6d914706a621e0389d7061600160006101000a81548173ffffffffffffffffffffffffffffffffffffffff021916908373ffffffffffffffffffffffffffffffffffffffff1602179055503480156200006657600080fd5b5033600073ffffffffffffffffffffffffffffffffffffffff168173ffffffffffffffffffffffffffffffffffffffff1603620000dd5760006040517f1e4fbdf7000000000000000000000000000000000000000000000000000000008152600401620000d4919062000206565b60405180910390fd5b620000ee81620000fd60201b60201c565b50600060028190555062000223565b60008060009054906101000a900473ffffffffffffffffffffffffffffffffffffffff169050816000806101000a81548173ffffffffffffffffffffffffffffffffffffffff021916908373ffffffffffffffffffffffffffffffffffffffff1602179055508173ffffffffffffffffffffffffffffffffffffffff168173ffffffffffffffffffffffffffffffffffffffff167f8be0079c531659141344cd1fd0a4f28419497f9722a3daafe3b4186f6b6457e060405160405180910390a35050565b600073ffffffffffffffffffffffffffffffffffffffff82169050919050565b6000620001ee82620001c1565b9050919050565b6200020081620001e1565b82525050565b60006020820190506200021d6000830184620001f5565b92915050565b61303280620002336000396000f3fe6080604052600436106100c25760003560e01c80637a1bb12f1161007f578063a593683d11610059578063a593683d14610240578063a77201fc14610269578063ccb98ffc14610292578063f2fde38b146102bb576100c2565b80637a1bb12f146101a757806384978a59146101ec5780638da5cb5b14610215576100c2565b806332dab267146100c75780634e5c31bc146100e357806352a5f1f8146100ff5780635bf35e66146101285780636929f49714610153578063715018a614610190575b600080fd5b6100e160048036038101906100dc9190611c80565b6102e4565b005b6100fd60048036038101906100f89190611d25565b6107d7565b005b34801561010b57600080fd5b5061012660048036038101906101219190611e6a565b610a1e565b005b34801561013457600080fd5b5061013d610b18565b60405161014a9190611ecc565b60405180910390f35b34801561015f57600080fd5b5061017a60048036038101906101759190611ee7565b610b1e565b60405161018791906121a5565b60405180910390f35b34801561019c57600080fd5b506101a5610d68565b005b3480156101b357600080fd5b506101ce60048036038101906101c991906121c7565b610d7c565b6040516101e39998979695949392919061224d565b60405180910390f35b3480156101f857600080fd5b50610213600480360381019061020e91906121c7565b610efa565b005b34801561022157600080fd5b5061022a61145a565b60405161023791906122e8565b60405180910390f35b34801561024c57600080fd5b5061026760048036038101906102629190611ee7565b611483565b005b34801561027557600080fd5b50610290600480360381019061028b91906124f6565b611645565b005b34801561029e57600080fd5b506102b960048036038101906102b491906121c7565b61186c565b005b3480156102c757600080fd5b506102e260048036038101906102dd91906125b1565b61188b565b005b6002548210610328576040517f08c379a000000000000000000000000000000000000000000000000000000000815260040161031f9061262a565b60405180910390fd5b3373ffffffffffffffffffffffffffffffffffffffff166003600084815260200190815260200160002060080160009054906101000a900473ffffffffffffffffffffffffffffffffffffffff1673ffffffffffffffffffffffffffffffffffffffff16146103cc576040517f08c379a00000000000000000000000000000000000000000000000000000000081526004016103c390612696565b60405180910390fd5b6000805b600360008581526020019081526020016000206007015481101561046a576001600681111561040257610401612084565b5b60046000868152602001908152602001600020600083815260200190815260200160002060060160009054906101000a900460ff16600681111561044957610448612084565b5b0361045d578180610459906126e5565b9250505b80806001019150506103d0565b50600360008481526020019081526020016000206003015481111561073d576000600160009054906101000a900473ffffffffffffffffffffffffffffffffffffffff1673ffffffffffffffffffffffffffffffffffffffff166382ee990c6040518163ffffffff1660e01b8152600401602060405180830381865afa1580156104f8573d6000803e3d6000fd5b505050506040513d601f19601f8201168201806040525081019061051c9190612742565b90506000600160009054906101000a900473ffffffffffffffffffffffffffffffffffffffff1673ffffffffffffffffffffffffffffffffffffffff1663b88c9148836040518263ffffffff1660e01b815260040161057b91906122e8565b602060405180830381865afa158015610598573d6000803e3d6000fd5b505050506040513d601f19601f820116820180604052508101906105bc91906127b7565b6fffffffffffffffffffffffffffffffff1690506000600160009054906101000a900473ffffffffffffffffffffffffffffffffffffffff1673ffffffffffffffffffffffffffffffffffffffff166319cb825f8385886040518463ffffffff1660e01b81526004016106309291906127f3565b60206040518083038185885af115801561064e573d6000803e3d6000fd5b50505050506040513d601f19601f820116820180604052508101906106739190612831565b905085600660008367ffffffffffffffff1667ffffffffffffffff1681526020019081526020016000208190555060405180608001604052808581526020016000801b81526020016001151581526020016000151581525060056000888152602001908152602001600020600082015181600001556020820151816001015560408201518160020160006101000a81548160ff02191690831515021790555060608201518160020160016101000a81548160ff0219169083151502179055509050505050506107d2565b60405180608001604052808281526020016000801b81526020016000151581526020016000151581525060056000858152602001908152602001600020600082015181600001556020820151816001015560408201518160020160006101000a81548160ff02191690831515021790555060608201518160020160016101000a81548160ff0219169083151502179055509050505b505050565b428111610819576040517f08c379a0000000000000000000000000000000000000000000000000000000008152600401610810906128aa565b60405180910390fd5b604051806101200160405280600254815260200187878080601f016020809104026020016040519081016040528093929190818152602001838380828437600081840152601f19601f82011690508083019250505050505050815260200185858080601f016020809104026020016040519081016040528093929190818152602001838380828437600081840152601f19601f820116905080830192505050505050508152602001838152602001348152602001428152602001828152602001600081526020013373ffffffffffffffffffffffffffffffffffffffff1681525060036000600254815260200190815260200160002060008201518160000155602082015181600101908161092e9190612ad6565b5060408201518160020190816109449190612ad6565b50606082015181600301556080820151816004015560a0820151816005015560c0820151816006015560e082015181600701556101008201518160080160006101000a81548173ffffffffffffffffffffffffffffffffffffffff021916908373ffffffffffffffffffffffffffffffffffffffff1602179055509050506002547f84b02e4dfe9ce03e8600abf5d755d6aa09edc185f29e7ebb148c2f469cedd6ce87876040516109f6929190612bd5565b60405180910390a260026000815480929190610a11906126e5565b9190505550505050505050565b6000610a28611911565b9050600073ffffffffffffffffffffffffffffffffffffffff168173ffffffffffffffffffffffffffffffffffffffff1603610a99576040517f08c379a0000000000000000000000000000000000000000000000000000000008152600401610a9090612c45565b60405180910390fd5b8073ffffffffffffffffffffffffffffffffffffffff163373ffffffffffffffffffffffffffffffffffffffff1614610b07576040517f08c379a0000000000000000000000000000000000000000000000000000000008152600401610afe90612cd7565b60405180910390fd5b610b1284848461193b565b50505050565b60025481565b610b26611b0a565b6004600084815260200190815260200160002060008381526020019081526020016000206040518060e0016040529081600082015481526020016001820154815260200160028201805480602002602001604051908101604052809291908181526020018280548015610bee57602002820191906000526020600020905b8160009054906101000a900473ffffffffffffffffffffffffffffffffffffffff1673ffffffffffffffffffffffffffffffffffffffff1681526020019060010190808311610ba4575b50505050508152602001600382018054610c07906128f9565b80601f0160208091040260200160405190810160405280929190818152602001828054610c33906128f9565b8015610c805780601f10610c5557610100808354040283529160200191610c80565b820191906000526020600020905b815481529060010190602001808311610c6357829003601f168201915b50505050508152602001600482018054610c99906128f9565b80601f0160208091040260200160405190810160405280929190818152602001828054610cc5906128f9565b8015610d125780601f10610ce757610100808354040283529160200191610d12565b820191906000526020600020905b815481529060010190602001808311610cf557829003601f168201915b50505050508152602001600582015481526020016006820160009054906101000a900460ff166006811115610d4a57610d49612084565b5b6006811115610d5c57610d5b612084565b5b81525050905092915050565b610d706119b7565b610d7a6000611a3e565b565b6003602052806000526040600020600091509050806000015490806001018054610da5906128f9565b80601f0160208091040260200160405190810160405280929190818152602001828054610dd1906128f9565b8015610e1e5780601f10610df357610100808354040283529160200191610e1e565b820191906000526020600020905b815481529060010190602001808311610e0157829003601f168201915b505050505090806002018054610e33906128f9565b80601f0160208091040260200160405190810160405280929190818152602001828054610e5f906128f9565b8015610eac5780601f10610e8157610100808354040283529160200191610eac565b820191906000526020600020905b815481529060010190602001808311610e8f57829003601f168201915b5050505050908060030154908060040154908060050154908060060154908060070154908060080160009054906101000a900473ffffffffffffffffffffffffffffffffffffffff16905089565b6002548110610f3e576040517f08c379a0000000000000000000000000000000000000000000000000000000008152600401610f359061262a565b60405180910390fd5b4260036000838152602001908152602001600020600601541115610f97576040517f08c379a0000000000000000000000000000000000000000000000000000000008152600401610f8e90612d43565b60405180910390fd5b3373ffffffffffffffffffffffffffffffffffffffff166003600083815260200190815260200160002060080160009054906101000a900473ffffffffffffffffffffffffffffffffffffffff1673ffffffffffffffffffffffffffffffffffffffff161461103b576040517f08c379a000000000000000000000000000000000000000000000000000000000815260040161103290612696565b60405180910390fd5b6000600560008381526020019081526020016000206000015411611094576040517f08c379a000000000000000000000000000000000000000000000000000000000815260040161108b90612daf565b60405180910390fd5b6005600082815260200190815260200160002060020160009054906101000a900460ff1615611376576000600560008381526020019081526020016000206000015490506000808267ffffffffffffffff8111156110f5576110f4612303565b5b6040519080825280602002602001820160405280156111235781602001602082028036833780820191505090505b50905060005b60036000868152602001908152602001600020600701548110156111d5576001600681111561115b5761115a612084565b5b60046000878152602001908152602001600020600083815260200190815260200160002060060160009054906101000a900460ff1660068111156111a2576111a1612084565b5b036111c857808284815181106111bb576111ba612dcf565b5b6020026020010181815250505b8080600101915050611129565b506000600560008681526020019081526020016000206001015460001c905060005b600360008781526020019081526020016000206003015481101561136c57600081866112239190612dfe565b828461122f9190612e32565b60405160200161123f9190612e87565b6040516020818303038152906040528051906020012060001c6112629190612ed1565b9050600084838151811061127957611278612dcf565b5b602002602001015190508482846112909190612e32565b815181106112a1576112a0612dcf565b5b60200260200101518584815181106112bc576112bb612dcf565b5b602002602001018181525050808583856112d69190612e32565b815181106112e7576112e6612dcf565b5b6020026020010181815250506002600460008a8152602001908152602001600020600087868151811061131d5761131c612dcf565b5b6020026020010151815260200190815260200160002060060160006101000a81548160ff0219169083600681111561135857611357612084565b5b0217905550505080806001019150506111f7565b5050505050611457565b60005b600360008381526020019081526020016000206007015481101561145557600160068111156113ab576113aa612084565b5b60046000848152602001908152602001600020600083815260200190815260200160002060060160009054906101000a900460ff1660068111156113f2576113f1612084565b5b0361144857600260046000848152602001908152602001600020600083815260200190815260200160002060060160006101000a81548160ff0219169083600681111561144257611441612084565b5b02179055505b8080600101915050611379565b505b50565b60008060009054906101000a900473ffffffffffffffffffffffffffffffffffffffff16905090565b60025482106114c7576040517f08c379a00000000000000000000000000000000000000000000000000000000081526004016114be9061262a565b60405180910390fd5b6003600083815260200190815260200160002060070154811061151f576040517f08c379a000000000000000000000000000000000000000000000000000000000815260040161151690612f4e565b60405180910390fd5b3373ffffffffffffffffffffffffffffffffffffffff166003600084815260200190815260200160002060080160009054906101000a900473ffffffffffffffffffffffffffffffffffffffff1673ffffffffffffffffffffffffffffffffffffffff16146115c3576040517f08c379a00000000000000000000000000000000000000000000000000000000081526004016115ba90612696565b60405180910390fd5b600160046000848152602001908152602001600020600083815260200190815260200160002060060160006101000a81548160ff0219169083600681111561160e5761160d612084565b5b021790555080827f11a51aed1c9ebcd3f62baccb54bfa98e3f4ab31fb611175f50e70bf4e5655d7960405160405180910390a35050565b6002548410611689576040517f08c379a00000000000000000000000000000000000000000000000000000000081526004016116809061262a565b60405180910390fd5b426003600086815260200190815260200160002060060154116116e1576040517f08c379a00000000000000000000000000000000000000000000000000000000081526004016116d890612fba565b60405180910390fd5b600060036000868152602001908152602001600020600701549050600360008681526020019081526020016000206007016000815480929190611723906126e5565b91905055506040518060e001604052808681526020018281526020018581526020018481526020018381526020014281526020016000600681111561176b5761176a612084565b5b815250600460008781526020019081526020016000206000838152602001908152602001600020600082015181600001556020820151816001015560408201518160020190805190602001906117c2929190611b59565b5060608201518160030190816117d89190612ad6565b5060808201518160040190816117ee9190612ad6565b5060a0820151816005015560c08201518160060160006101000a81548160ff0219169083600681111561182457611823612084565b5b021790555090505080857fc42322ef0c4ddd1d276576be3d0acbe0d6648239c6b77ea3fc0254e275a7d5da8560405161185d9190612fda565b60405180910390a35050505050565b6000600360008381526020019081526020016000206006018190555050565b6118936119b7565b600073ffffffffffffffffffffffffffffffffffffffff168173ffffffffffffffffffffffffffffffffffffffff16036119055760006040517f1e4fbdf70000000000000000000000000000000000000000000000000000000081526004016118fc91906122e8565b60405180910390fd5b61190e81611a3e565b50565b6000600160009054906101000a900473ffffffffffffffffffffffffffffffffffffffff16905090565b6000600660008567ffffffffffffffff1667ffffffffffffffff16815260200190815260200160002054905081600560008381526020019081526020016000206001018190555060016005600083815260200190815260200160002060020160016101000a81548160ff02191690831515021790555050505050565b6119bf611b02565b73ffffffffffffffffffffffffffffffffffffffff166119dd61145a565b73ffffffffffffffffffffffffffffffffffffffff1614611a3c57611a00611b02565b6040517f118cdaa7000000000000000000000000000000000000000000000000000000008152600401611a3391906122e8565b60405180910390fd5b565b60008060009054906101000a900473ffffffffffffffffffffffffffffffffffffffff169050816000806101000a81548173ffffffffffffffffffffffffffffffffffffffff021916908373ffffffffffffffffffffffffffffffffffffffff1602179055508173ffffffffffffffffffffffffffffffffffffffff168173ffffffffffffffffffffffffffffffffffffffff167f8be0079c531659141344cd1fd0a4f28419497f9722a3daafe3b4186f6b6457e060405160405180910390a35050565b600033905090565b6040518060e0016040528060008152602001600081526020016060815260200160608152602001606081526020016000815260200160006006811115611b5357611b52612084565b5b81525090565b828054828255906000526020600020908101928215611bd2579160200282015b82811115611bd15782518260006101000a81548173ffffffffffffffffffffffffffffffffffffffff021916908373ffffffffffffffffffffffffffffffffffffffff16021790555091602001919060010190611b79565b5b509050611bdf9190611be3565b5090565b5b80821115611bfc576000816000905550600101611be4565b5090565b6000604051905090565b600080fd5b600080fd5b6000819050919050565b611c2781611c14565b8114611c3257600080fd5b50565b600081359050611c4481611c1e565b92915050565b6000819050919050565b611c5d81611c4a565b8114611c6857600080fd5b50565b600081359050611c7a81611c54565b92915050565b60008060408385031215611c9757611c96611c0a565b5b6000611ca585828601611c35565b9250506020611cb685828601611c6b565b9150509250929050565b600080fd5b600080fd5b600080fd5b60008083601f840112611ce557611ce4611cc0565b5b8235905067ffffffffffffffff811115611d0257611d01611cc5565b5b602083019150836001820283011115611d1e57611d1d611cca565b5b9250929050565b60008060008060008060808789031215611d4257611d41611c0a565b5b600087013567ffffffffffffffff811115611d6057611d5f611c0f565b5b611d6c89828a01611ccf565b9650965050602087013567ffffffffffffffff811115611d8f57611d8e611c0f565b5b611d9b89828a01611ccf565b94509450506040611dae89828a01611c35565b9250506060611dbf89828a01611c35565b9150509295509295509295565b600067ffffffffffffffff82169050919050565b611de981611dcc565b8114611df457600080fd5b50565b600081359050611e0681611de0565b92915050565b600073ffffffffffffffffffffffffffffffffffffffff82169050919050565b6000611e3782611e0c565b9050919050565b611e4781611e2c565b8114611e5257600080fd5b50565b600081359050611e6481611e3e565b92915050565b600080600060608486031215611e8357611e82611c0a565b5b6000611e9186828701611df7565b9350506020611ea286828701611e55565b9250506040611eb386828701611c6b565b9150509250925092565b611ec681611c14565b82525050565b6000602082019050611ee16000830184611ebd565b92915050565b60008060408385031215611efe57611efd611c0a565b5b6000611f0c85828601611c35565b9250506020611f1d85828601611c35565b9150509250929050565b611f3081611c14565b82525050565b600081519050919050565b600082825260208201905092915050565b6000819050602082019050919050565b611f6b81611e2c565b82525050565b6000611f7d8383611f62565b60208301905092915050565b6000602082019050919050565b6000611fa182611f36565b611fab8185611f41565b9350611fb683611f52565b8060005b83811015611fe7578151611fce8882611f71565b9750611fd983611f89565b925050600181019050611fba565b5085935050505092915050565b600081519050919050565b600082825260208201905092915050565b60005b8381101561202e578082015181840152602081019050612013565b60008484015250505050565b6000601f19601f8301169050919050565b600061205682611ff4565b6120608185611fff565b9350612070818560208601612010565b6120798161203a565b840191505092915050565b7f4e487b7100000000000000000000000000000000000000000000000000000000600052602160045260246000fd5b600781106120c4576120c3612084565b5b50565b60008190506120d5826120b3565b919050565b60006120e5826120c7565b9050919050565b6120f5816120da565b82525050565b600060e0830160008301516121136000860182611f27565b5060208301516121266020860182611f27565b506040830151848203604086015261213e8282611f96565b91505060608301518482036060860152612158828261204b565b91505060808301518482036080860152612172828261204b565b91505060a083015161218760a0860182611f27565b5060c083015161219a60c08601826120ec565b508091505092915050565b600060208201905081810360008301526121bf81846120fb565b905092915050565b6000602082840312156121dd576121dc611c0a565b5b60006121eb84828501611c35565b91505092915050565b600082825260208201905092915050565b600061221082611ff4565b61221a81856121f4565b935061222a818560208601612010565b6122338161203a565b840191505092915050565b61224781611e2c565b82525050565b600061012082019050612263600083018c611ebd565b8181036020830152612275818b612205565b90508181036040830152612289818a612205565b90506122986060830189611ebd565b6122a56080830188611ebd565b6122b260a0830187611ebd565b6122bf60c0830186611ebd565b6122cc60e0830185611ebd565b6122da61010083018461223e565b9a9950505050505050505050565b60006020820190506122fd600083018461223e565b92915050565b7f4e487b7100000000000000000000000000000000000000000000000000000000600052604160045260246000fd5b61233b8261203a565b810181811067ffffffffffffffff8211171561235a57612359612303565b5b80604052505050565b600061236d611c00565b90506123798282612332565b919050565b600067ffffffffffffffff82111561239957612398612303565b5b602082029050602081019050919050565b60006123bd6123b88461237e565b612363565b905080838252602082019050602084028301858111156123e0576123df611cca565b5b835b8181101561240957806123f58882611e55565b8452602084019350506020810190506123e2565b5050509392505050565b600082601f83011261242857612427611cc0565b5b81356124388482602086016123aa565b91505092915050565b600080fd5b600067ffffffffffffffff82111561246157612460612303565b5b61246a8261203a565b9050602081019050919050565b82818337600083830152505050565b600061249961249484612446565b612363565b9050828152602081018484840111156124b5576124b4612441565b5b6124c0848285612477565b509392505050565b600082601f8301126124dd576124dc611cc0565b5b81356124ed848260208601612486565b91505092915050565b600080600080608085870312156125105761250f611c0a565b5b600061251e87828801611c35565b945050602085013567ffffffffffffffff81111561253f5761253e611c0f565b5b61254b87828801612413565b935050604085013567ffffffffffffffff81111561256c5761256b611c0f565b5b612578878288016124c8565b925050606085013567ffffffffffffffff81111561259957612598611c0f565b5b6125a5878288016124c8565b91505092959194509250565b6000602082840312156125c7576125c6611c0a565b5b60006125d584828501611e55565b91505092915050565b7f494e56414c49445f4752414e545f50524f504f53414c5f494400000000000000600082015250565b60006126146019836121f4565b915061261f826125de565b602082019050919050565b6000602082019050818103600083015261264381612607565b9050919050565b7f494e56414c49445f4752414e545f4f574e455200000000000000000000000000600082015250565b60006126806013836121f4565b915061268b8261264a565b602082019050919050565b600060208201905081810360008301526126af81612673565b9050919050565b7f4e487b7100000000000000000000000000000000000000000000000000000000600052601160045260246000fd5b60006126f082611c14565b91507fffffffffffffffffffffffffffffffffffffffffffffffffffffffffffffffff8203612722576127216126b6565b5b600182019050919050565b60008151905061273c81611e3e565b92915050565b60006020828403121561275857612757611c0a565b5b60006127668482850161272d565b91505092915050565b60006fffffffffffffffffffffffffffffffff82169050919050565b6127948161276f565b811461279f57600080fd5b50565b6000815190506127b18161278b565b92915050565b6000602082840312156127cd576127cc611c0a565b5b60006127db848285016127a2565b91505092915050565b6127ed81611c4a565b82525050565b6000604082019050612808600083018561223e565b61281560208301846127e4565b9392505050565b60008151905061282b81611de0565b92915050565b60006020828403121561284757612846611c0a565b5b60006128558482850161281c565b91505092915050565b7f494e56414c49445f454e445f4150504c595f54494d4500000000000000000000600082015250565b60006128946016836121f4565b915061289f8261285e565b602082019050919050565b600060208201905081810360008301526128c381612887565b9050919050565b7f4e487b7100000000000000000000000000000000000000000000000000000000600052602260045260246000fd5b6000600282049050600182168061291157607f821691505b602082108103612924576129236128ca565b5b50919050565b60008190508160005260206000209050919050565b60006020601f8301049050919050565b600082821b905092915050565b60006008830261298c7fffffffffffffffffffffffffffffffffffffffffffffffffffffffffffffffff8261294f565b612996868361294f565b95508019841693508086168417925050509392505050565b6000819050919050565b60006129d36129ce6129c984611c14565b6129ae565b611c14565b9050919050565b6000819050919050565b6129ed836129b8565b612a016129f9826129da565b84845461295c565b825550505050565b600090565b612a16612a09565b612a218184846129e4565b505050565b5b81811015612a4557612a3a600082612a0e565b600181019050612a27565b5050565b601f821115612a8a57612a5b8161292a565b612a648461293f565b81016020851015612a73578190505b612a87612a7f8561293f565b830182612a26565b50505b505050565b600082821c905092915050565b6000612aad60001984600802612a8f565b1980831691505092915050565b6000612ac68383612a9c565b9150826002028217905092915050565b612adf82611ff4565b67ffffffffffffffff811115612af857612af7612303565b5b612b0282546128f9565b612b0d828285612a49565b600060209050601f831160018114612b405760008415612b2e578287015190505b612b388582612aba565b865550612ba0565b601f198416612b4e8661292a565b60005b82811015612b7657848901518255600182019150602085019450602081019050612b51565b86831015612b935784890151612b8f601f891682612a9c565b8355505b6001600288020188555050505b505050505050565b6000612bb483856121f4565b9350612bc1838584612477565b612bca8361203a565b840190509392505050565b60006020820190508181036000830152612bf0818486612ba8565b90509392505050565b7f456e74726f70792061646472657373206e6f7420736574000000000000000000600082015250565b6000612c2f6017836121f4565b9150612c3a82612bf9565b602082019050919050565b60006020820190508181036000830152612c5e81612c22565b9050919050565b7f4f6e6c7920456e74726f70792063616e2063616c6c20746869732066756e637460008201527f696f6e0000000000000000000000000000000000000000000000000000000000602082015250565b6000612cc16023836121f4565b9150612ccc82612c65565b604082019050919050565b60006020820190508181036000830152612cf081612cb4565b9050919050565b7f5354494c4c5f4150504c49434154494f4e000000000000000000000000000000600082015250565b6000612d2d6011836121f4565b9150612d3882612cf7565b602082019050919050565b60006020820190508181036000830152612d5c81612d20565b9050919050565b7f4e4f5f454c494749424c455f50524f4a45435453000000000000000000000000600082015250565b6000612d996014836121f4565b9150612da482612d63565b602082019050919050565b60006020820190508181036000830152612dc881612d8c565b9050919050565b7f4e487b7100000000000000000000000000000000000000000000000000000000600052603260045260246000fd5b6000612e0982611c14565b9150612e1483611c14565b9250828203905081811115612e2c57612e2b6126b6565b5b92915050565b6000612e3d82611c14565b9150612e4883611c14565b9250828201905080821115612e6057612e5f6126b6565b5b92915050565b6000819050919050565b612e81612e7c82611c14565b612e66565b82525050565b6000612e938284612e70565b60208201915081905092915050565b7f4e487b7100000000000000000000000000000000000000000000000000000000600052601260045260246000fd5b6000612edc82611c14565b9150612ee783611c14565b925082612ef757612ef6612ea2565b5b828206905092915050565b7f494e56414c49445f50524f4a4543545f49440000000000000000000000000000600082015250565b6000612f386012836121f4565b9150612f4382612f02565b602082019050919050565b60006020820190508181036000830152612f6781612f2b565b9050919050565b7f4e4f5f4d4f52455f4150504c49434154494f4e00000000000000000000000000600082015250565b6000612fa46013836121f4565b9150612faf82612f6e565b602082019050919050565b60006020820190508181036000830152612fd381612f97565b9050919050565b60006020820190508181036000830152612ff48184612205565b90509291505056fea2646970667358221220d46ac45d78681560902c7ecb21926bc3842eb171bfb2f154d84d6ec0f754a8ee64736f6c63430008180033",
  "linkReferences": {},
  "deployedLinkReferences": {}
}