{
  "_format": "hh-sol-artifact-1",
  "contractName": "GrantManager",
  "sourceName": "contracts/GrantManager.sol",
  "address": "0x1Fe4A9694eA00d7148838ad7a30cF1546594a81a",
  "abi": [
    {
      "inputs": [],
      "stateMutability": "nonpayable",
      "type": "constructor"
    },
    {
      "inputs": [
        {
          "internalType": "address",
          "name": "owner",
          "type": "address"
        }
      ],
      "name": "OwnableInvalidOwner",
      "type": "error"
    },
    {
      "inputs": [
        {
          "internalType": "address",
          "name": "account",
          "type": "address"
        }
      ],
      "name": "OwnableUnauthorizedAccount",
      "type": "error"
    },
    {
      "anonymous": false,
      "inputs": [
        {
          "indexed": true,
          "internalType": "uint256",
          "name": "grantId",
          "type": "uint256"
        },
        {
          "indexed": true,
          "internalType": "uint256",
          "name": "projectId",
          "type": "uint256"
        },
        {
          "indexed": false,
          "internalType": "string",
          "name": "title",
          "type": "string"
        }
      ],
      "name": "NewGrantProject",
      "type": "event"
    },
    {
      "anonymous": false,
      "inputs": [
        {
          "indexed": true,
          "internalType": "uint256",
          "name": "grantId",
          "type": "uint256"
        },
        {
          "indexed": false,
          "internalType": "string",
          "name": "title",
          "type": "string"
        }
      ],
      "name": "NewGrantProposal",
      "type": "event"
    },
    {
      "anonymous": false,
      "inputs": [
        {
          "indexed": true,
          "internalType": "address",
          "name": "previousOwner",
          "type": "address"
        },
        {
          "indexed": true,
          "internalType": "address",
          "name": "newOwner",
          "type": "address"
        }
      ],
      "name": "OwnershipTransferred",
      "type": "event"
    },
    {
      "inputs": [
        {
          "internalType": "uint256",
          "name": "grantProposalId",
          "type": "uint256"
        },
        {
          "internalType": "address[]",
          "name": "_teams",
          "type": "address[]"
        },
        {
          "internalType": "string",
          "name": "_title",
          "type": "string"
        },
        {
          "internalType": "string",
          "name": "_description",
          "type": "string"
        }
      ],
      "name": "applyGrantProposal",
      "outputs": [],
      "stateMutability": "nonpayable",
      "type": "function"
    },
    {
      "inputs": [
        {
          "internalType": "string",
          "name": "_title",
          "type": "string"
        },
        {
          "internalType": "string",
          "name": "_description",
          "type": "string"
        },
        {
          "internalType": "uint256",
          "name": "_numberSelectedProject",
          "type": "uint256"
        },
        {
          "internalType": "uint256",
          "name": "_endApplyTime",
          "type": "uint256"
        }
      ],
      "name": "createGrantProposal",
      "outputs": [],
      "stateMutability": "payable",
      "type": "function"
    },
    {
      "inputs": [],
      "name": "currentGrantId",
      "outputs": [
        {
          "internalType": "uint256",
          "name": "",
          "type": "uint256"
        }
      ],
      "stateMutability": "view",
      "type": "function"
    },
    {
      "inputs": [
        {
          "internalType": "uint256",
          "name": "",
          "type": "uint256"
        },
        {
          "internalType": "uint256",
          "name": "",
          "type": "uint256"
        }
      ],
      "name": "grantPropositionProjects",
      "outputs": [
        {
          "internalType": "uint256",
          "name": "grantId",
          "type": "uint256"
        },
        {
          "internalType": "uint256",
          "name": "projectId",
          "type": "uint256"
        },
        {
          "internalType": "string",
          "name": "title",
          "type": "string"
        },
        {
          "internalType": "string",
          "name": "description",
          "type": "string"
        },
        {
          "internalType": "uint256",
          "name": "creationTime",
          "type": "uint256"
        },
        {
          "internalType": "enum ProjectStatus",
          "name": "status",
          "type": "uint8"
        }
      ],
      "stateMutability": "view",
      "type": "function"
    },
    {
      "inputs": [
        {
          "internalType": "uint256",
          "name": "",
          "type": "uint256"
        }
      ],
      "name": "grantPropositions",
      "outputs": [
        {
          "internalType": "uint256",
          "name": "id",
          "type": "uint256"
        },
        {
          "internalType": "string",
          "name": "title",
          "type": "string"
        },
        {
          "internalType": "string",
          "name": "description",
          "type": "string"
        },
        {
          "internalType": "uint256",
          "name": "numberSelectedProject",
          "type": "uint256"
        },
        {
          "internalType": "uint256",
          "name": "prize",
          "type": "uint256"
        },
        {
          "internalType": "uint256",
          "name": "creationTime",
          "type": "uint256"
        },
        {
          "internalType": "uint256",
          "name": "endApplyTime",
          "type": "uint256"
        },
        {
          "internalType": "uint256",
          "name": "numberSubmittedProject",
          "type": "uint256"
        }
      ],
      "stateMutability": "view",
      "type": "function"
    },
    {
      "inputs": [],
      "name": "owner",
      "outputs": [
        {
          "internalType": "address",
          "name": "",
          "type": "address"
        }
      ],
      "stateMutability": "view",
      "type": "function"
    },
    {
      "inputs": [],
      "name": "renounceOwnership",
      "outputs": [],
      "stateMutability": "nonpayable",
      "type": "function"
    },
    {
      "inputs": [
        {
          "internalType": "address",
          "name": "newOwner",
          "type": "address"
        }
      ],
      "name": "transferOwnership",
      "outputs": [],
      "stateMutability": "nonpayable",
      "type": "function"
    }
  ],
  "bytecode": "0x60806040523480156200001157600080fd5b5033600073ffffffffffffffffffffffffffffffffffffffff168173ffffffffffffffffffffffffffffffffffffffff1603620000885760006040517f1e4fbdf70000000000000000000000000000000000000000000000000000000081526004016200007f9190620001b1565b60405180910390fd5b6200009981620000a860201b60201c565b506000600181905550620001ce565b60008060009054906101000a900473ffffffffffffffffffffffffffffffffffffffff169050816000806101000a81548173ffffffffffffffffffffffffffffffffffffffff021916908373ffffffffffffffffffffffffffffffffffffffff1602179055508173ffffffffffffffffffffffffffffffffffffffff168173ffffffffffffffffffffffffffffffffffffffff167f8be0079c531659141344cd1fd0a4f28419497f9722a3daafe3b4186f6b6457e060405160405180910390a35050565b600073ffffffffffffffffffffffffffffffffffffffff82169050919050565b600062000199826200016c565b9050919050565b620001ab816200018c565b82525050565b6000602082019050620001c86000830184620001a0565b92915050565b61180080620001de6000396000f3fe60806040526004361061007b5760003560e01c80638da5cb5b1161004e5780638da5cb5b14610122578063a77201fc1461014d578063f2fde38b14610176578063ff2835b61461019f5761007b565b80634e5c31bc146100805780635bf35e661461009c578063715018a6146100c75780637a1bb12f146100de575b600080fd5b61009a60048036038101906100959190610c1b565b6101e1565b005b3480156100a857600080fd5b506100b16103c4565b6040516100be9190610cd1565b60405180910390f35b3480156100d357600080fd5b506100dc6103ca565b005b3480156100ea57600080fd5b5061010560048036038101906101009190610cec565b6103de565b604051610119989796959493929190610da9565b60405180910390f35b34801561012e57600080fd5b50610137610536565b6040516101449190610e76565b60405180910390f35b34801561015957600080fd5b50610174600480360381019061016f91906110b0565b61055f565b005b34801561018257600080fd5b5061019d6004803603810190610198919061116b565b610786565b005b3480156101ab57600080fd5b506101c660048036038101906101c19190611198565b61080c565b6040516101d89695949392919061124f565b60405180910390f35b428111610223576040517f08c379a000000000000000000000000000000000000000000000000000000000815260040161021a9061130a565b60405180910390fd5b604051806101000160405280600154815260200187878080601f016020809104026020016040519081016040528093929190818152602001838380828437600081840152601f19601f82011690508083019250505050505050815260200185858080601f016020809104026020016040519081016040528093929190818152602001838380828437600081840152601f19601f820116905080830192505050505050508152602001838152602001348152602001428152602001828152602001600081525060026000600154815260200190815260200160002060008201518160000155602082015181600101908161031c9190611536565b5060408201518160020190816103329190611536565b50606082015181600301556080820151816004015560a0820151816005015560c0820151816006015560e082015181600701559050506001547f84b02e4dfe9ce03e8600abf5d755d6aa09edc185f29e7ebb148c2f469cedd6ce878760405161039c929190611635565b60405180910390a2600160008154809291906103b790611688565b9190505550505050505050565b60015481565b6103d2610972565b6103dc60006109f9565b565b600260205280600052604060002060009150905080600001549080600101805461040790611359565b80601f016020809104026020016040519081016040528092919081815260200182805461043390611359565b80156104805780601f1061045557610100808354040283529160200191610480565b820191906000526020600020905b81548152906001019060200180831161046357829003601f168201915b50505050509080600201805461049590611359565b80601f01602080910402602001604051908101604052809291908181526020018280546104c190611359565b801561050e5780601f106104e35761010080835404028352916020019161050e565b820191906000526020600020905b8154815290600101906020018083116104f157829003601f168201915b5050505050908060030154908060040154908060050154908060060154908060070154905088565b60008060009054906101000a900473ffffffffffffffffffffffffffffffffffffffff16905090565b60015484106105a3576040517f08c379a000000000000000000000000000000000000000000000000000000000815260040161059a9061171c565b60405180910390fd5b426002600086815260200190815260200160002060060154106105fb576040517f08c379a00000000000000000000000000000000000000000000000000000000081526004016105f290611788565b60405180910390fd5b60006002600086815260200190815260200160002060070154905060026000868152602001908152602001600020600701600081548092919061063d90611688565b91905055506040518060e0016040528086815260200182815260200185815260200184815260200183815260200142815260200160006006811115610685576106846111d8565b5b815250600360008781526020019081526020016000206000838152602001908152602001600020600082015181600001556020820151816001015560408201518160020190805190602001906106dc929190610ac5565b5060608201518160030190816106f29190611536565b5060808201518160040190816107089190611536565b5060a0820151816005015560c08201518160060160006101000a81548160ff0219169083600681111561073e5761073d6111d8565b5b021790555090505080857fc42322ef0c4ddd1d276576be3d0acbe0d6648239c6b77ea3fc0254e275a7d5da8560405161077791906117a8565b60405180910390a35050505050565b61078e610972565b600073ffffffffffffffffffffffffffffffffffffffff168173ffffffffffffffffffffffffffffffffffffffff16036108005760006040517f1e4fbdf70000000000000000000000000000000000000000000000000000000081526004016107f79190610e76565b60405180910390fd5b610809816109f9565b50565b60036020528160005260406000206020528060005260406000206000915091505080600001549080600101549080600301805461084890611359565b80601f016020809104026020016040519081016040528092919081815260200182805461087490611359565b80156108c15780601f10610896576101008083540402835291602001916108c1565b820191906000526020600020905b8154815290600101906020018083116108a457829003601f168201915b5050505050908060040180546108d690611359565b80601f016020809104026020016040519081016040528092919081815260200182805461090290611359565b801561094f5780601f106109245761010080835404028352916020019161094f565b820191906000526020600020905b81548152906001019060200180831161093257829003601f168201915b5050505050908060050154908060060160009054906101000a900460ff16905086565b61097a610abd565b73ffffffffffffffffffffffffffffffffffffffff16610998610536565b73ffffffffffffffffffffffffffffffffffffffff16146109f7576109bb610abd565b6040517f118cdaa70000000000000000000000000000000000000000000000000000000081526004016109ee9190610e76565b60405180910390fd5b565b60008060009054906101000a900473ffffffffffffffffffffffffffffffffffffffff169050816000806101000a81548173ffffffffffffffffffffffffffffffffffffffff021916908373ffffffffffffffffffffffffffffffffffffffff1602179055508173ffffffffffffffffffffffffffffffffffffffff168173ffffffffffffffffffffffffffffffffffffffff167f8be0079c531659141344cd1fd0a4f28419497f9722a3daafe3b4186f6b6457e060405160405180910390a35050565b600033905090565b828054828255906000526020600020908101928215610b3e579160200282015b82811115610b3d5782518260006101000a81548173ffffffffffffffffffffffffffffffffffffffff021916908373ffffffffffffffffffffffffffffffffffffffff16021790555091602001919060010190610ae5565b5b509050610b4b9190610b4f565b5090565b5b80821115610b68576000816000905550600101610b50565b5090565b6000604051905090565b600080fd5b600080fd5b600080fd5b600080fd5b600080fd5b60008083601f840112610ba557610ba4610b80565b5b8235905067ffffffffffffffff811115610bc257610bc1610b85565b5b602083019150836001820283011115610bde57610bdd610b8a565b5b9250929050565b6000819050919050565b610bf881610be5565b8114610c0357600080fd5b50565b600081359050610c1581610bef565b92915050565b60008060008060008060808789031215610c3857610c37610b76565b5b600087013567ffffffffffffffff811115610c5657610c55610b7b565b5b610c6289828a01610b8f565b9650965050602087013567ffffffffffffffff811115610c8557610c84610b7b565b5b610c9189828a01610b8f565b94509450506040610ca489828a01610c06565b9250506060610cb589828a01610c06565b9150509295509295509295565b610ccb81610be5565b82525050565b6000602082019050610ce66000830184610cc2565b92915050565b600060208284031215610d0257610d01610b76565b5b6000610d1084828501610c06565b91505092915050565b600081519050919050565b600082825260208201905092915050565b60005b83811015610d53578082015181840152602081019050610d38565b60008484015250505050565b6000601f19601f8301169050919050565b6000610d7b82610d19565b610d858185610d24565b9350610d95818560208601610d35565b610d9e81610d5f565b840191505092915050565b600061010082019050610dbf600083018b610cc2565b8181036020830152610dd1818a610d70565b90508181036040830152610de58189610d70565b9050610df46060830188610cc2565b610e016080830187610cc2565b610e0e60a0830186610cc2565b610e1b60c0830185610cc2565b610e2860e0830184610cc2565b9998505050505050505050565b600073ffffffffffffffffffffffffffffffffffffffff82169050919050565b6000610e6082610e35565b9050919050565b610e7081610e55565b82525050565b6000602082019050610e8b6000830184610e67565b92915050565b7f4e487b7100000000000000000000000000000000000000000000000000000000600052604160045260246000fd5b610ec982610d5f565b810181811067ffffffffffffffff82111715610ee857610ee7610e91565b5b80604052505050565b6000610efb610b6c565b9050610f078282610ec0565b919050565b600067ffffffffffffffff821115610f2757610f26610e91565b5b602082029050602081019050919050565b610f4181610e55565b8114610f4c57600080fd5b50565b600081359050610f5e81610f38565b92915050565b6000610f77610f7284610f0c565b610ef1565b90508083825260208201905060208402830185811115610f9a57610f99610b8a565b5b835b81811015610fc35780610faf8882610f4f565b845260208401935050602081019050610f9c565b5050509392505050565b600082601f830112610fe257610fe1610b80565b5b8135610ff2848260208601610f64565b91505092915050565b600080fd5b600067ffffffffffffffff82111561101b5761101a610e91565b5b61102482610d5f565b9050602081019050919050565b82818337600083830152505050565b600061105361104e84611000565b610ef1565b90508281526020810184848401111561106f5761106e610ffb565b5b61107a848285611031565b509392505050565b600082601f83011261109757611096610b80565b5b81356110a7848260208601611040565b91505092915050565b600080600080608085870312156110ca576110c9610b76565b5b60006110d887828801610c06565b945050602085013567ffffffffffffffff8111156110f9576110f8610b7b565b5b61110587828801610fcd565b935050604085013567ffffffffffffffff81111561112657611125610b7b565b5b61113287828801611082565b925050606085013567ffffffffffffffff81111561115357611152610b7b565b5b61115f87828801611082565b91505092959194509250565b60006020828403121561118157611180610b76565b5b600061118f84828501610f4f565b91505092915050565b600080604083850312156111af576111ae610b76565b5b60006111bd85828601610c06565b92505060206111ce85828601610c06565b9150509250929050565b7f4e487b7100000000000000000000000000000000000000000000000000000000600052602160045260246000fd5b60078110611218576112176111d8565b5b50565b600081905061122982611207565b919050565b60006112398261121b565b9050919050565b6112498161122e565b82525050565b600060c0820190506112646000830189610cc2565b6112716020830188610cc2565b81810360408301526112838187610d70565b905081810360608301526112978186610d70565b90506112a66080830185610cc2565b6112b360a0830184611240565b979650505050505050565b7f494e56414c49445f454e445f4150504c595f54494d4500000000000000000000600082015250565b60006112f4601683610d24565b91506112ff826112be565b602082019050919050565b60006020820190508181036000830152611323816112e7565b9050919050565b7f4e487b7100000000000000000000000000000000000000000000000000000000600052602260045260246000fd5b6000600282049050600182168061137157607f821691505b6020821081036113845761138361132a565b5b50919050565b60008190508160005260206000209050919050565b60006020601f8301049050919050565b600082821b905092915050565b6000600883026113ec7fffffffffffffffffffffffffffffffffffffffffffffffffffffffffffffffff826113af565b6113f686836113af565b95508019841693508086168417925050509392505050565b6000819050919050565b600061143361142e61142984610be5565b61140e565b610be5565b9050919050565b6000819050919050565b61144d83611418565b6114616114598261143a565b8484546113bc565b825550505050565b600090565b611476611469565b611481818484611444565b505050565b5b818110156114a55761149a60008261146e565b600181019050611487565b5050565b601f8211156114ea576114bb8161138a565b6114c48461139f565b810160208510156114d3578190505b6114e76114df8561139f565b830182611486565b50505b505050565b600082821c905092915050565b600061150d600019846008026114ef565b1980831691505092915050565b600061152683836114fc565b9150826002028217905092915050565b61153f82610d19565b67ffffffffffffffff81111561155857611557610e91565b5b6115628254611359565b61156d8282856114a9565b600060209050601f8311600181146115a0576000841561158e578287015190505b611598858261151a565b865550611600565b601f1984166115ae8661138a565b60005b828110156115d6578489015182556001820191506020850194506020810190506115b1565b868310156115f357848901516115ef601f8916826114fc565b8355505b6001600288020188555050505b505050505050565b60006116148385610d24565b9350611621838584611031565b61162a83610d5f565b840190509392505050565b60006020820190508181036000830152611650818486611608565b90509392505050565b7f4e487b7100000000000000000000000000000000000000000000000000000000600052601160045260246000fd5b600061169382610be5565b91507fffffffffffffffffffffffffffffffffffffffffffffffffffffffffffffffff82036116c5576116c4611659565b5b600182019050919050565b7f494e56414c49445f4752414e545f50524f504f53414c5f494400000000000000600082015250565b6000611706601983610d24565b9150611711826116d0565b602082019050919050565b60006020820190508181036000830152611735816116f9565b9050919050565b7f4e4f5f4d4f52455f4150504c49434154494f4e00000000000000000000000000600082015250565b6000611772601383610d24565b915061177d8261173c565b602082019050919050565b600060208201905081810360008301526117a181611765565b9050919050565b600060208201905081810360008301526117c28184610d70565b90509291505056fea2646970667358221220b9445a39116f8e4d1cd5318c2e001fef8031a33db1780abf14b6e3ddad22410a64736f6c63430008180033",
  "linkReferences": {},
  "deployedLinkReferences": {}
}