{
  "_format": "hh-sol-artifact-1",
  "contractName": "GrantManager",
  "sourceName": "contracts/GrantManager.sol",
  "abi": [
    {
      "inputs": [],
      "stateMutability": "nonpayable",
      "type": "constructor"
    },
    {
      "inputs": [
        {
          "internalType": "address",
          "name": "owner",
          "type": "address"
        }
      ],
      "name": "OwnableInvalidOwner",
      "type": "error"
    },
    {
      "inputs": [
        {
          "internalType": "address",
          "name": "account",
          "type": "address"
        }
      ],
      "name": "OwnableUnauthorizedAccount",
      "type": "error"
    },
    {
      "anonymous": false,
      "inputs": [
        {
          "indexed": true,
          "internalType": "uint256",
          "name": "grantId",
          "type": "uint256"
        },
        {
          "indexed": true,
          "internalType": "uint256",
          "name": "projectId",
          "type": "uint256"
        }
      ],
      "name": "NewEligibleProject",
      "type": "event"
    },
    {
      "anonymous": false,
      "inputs": [
        {
          "indexed": true,
          "internalType": "uint256",
          "name": "grantId",
          "type": "uint256"
        },
        {
          "indexed": true,
          "internalType": "uint256",
          "name": "projectId",
          "type": "uint256"
        },
        {
          "indexed": false,
          "internalType": "string",
          "name": "title",
          "type": "string"
        }
      ],
      "name": "NewGrantProject",
      "type": "event"
    },
    {
      "anonymous": false,
      "inputs": [
        {
          "indexed": true,
          "internalType": "uint256",
          "name": "grantId",
          "type": "uint256"
        },
        {
          "indexed": false,
          "internalType": "string",
          "name": "title",
          "type": "string"
        }
      ],
      "name": "NewGrantProposal",
      "type": "event"
    },
    {
      "anonymous": false,
      "inputs": [
        {
          "indexed": true,
          "internalType": "address",
          "name": "previousOwner",
          "type": "address"
        },
        {
          "indexed": true,
          "internalType": "address",
          "name": "newOwner",
          "type": "address"
        }
      ],
      "name": "OwnershipTransferred",
      "type": "event"
    },
    {
      "inputs": [
        {
          "internalType": "uint64",
          "name": "sequence",
          "type": "uint64"
        },
        {
          "internalType": "address",
          "name": "provider",
          "type": "address"
        },
        {
          "internalType": "bytes32",
          "name": "randomNumber",
          "type": "bytes32"
        }
      ],
      "name": "_entropyCallback",
      "outputs": [],
      "stateMutability": "nonpayable",
      "type": "function"
    },
    {
      "inputs": [
        {
          "internalType": "uint256",
          "name": "grantProposalId",
          "type": "uint256"
        },
        {
          "internalType": "address[]",
          "name": "_teams",
          "type": "address[]"
        },
        {
          "internalType": "string",
          "name": "_title",
          "type": "string"
        },
        {
          "internalType": "string",
          "name": "_description",
          "type": "string"
        }
      ],
      "name": "applyGrantProposal",
      "outputs": [],
      "stateMutability": "nonpayable",
      "type": "function"
    },
    {
      "inputs": [
        {
          "internalType": "string",
          "name": "_title",
          "type": "string"
        },
        {
          "internalType": "string",
          "name": "_description",
          "type": "string"
        },
        {
          "internalType": "uint256",
          "name": "_numberSelectedProject",
          "type": "uint256"
        },
        {
          "internalType": "uint256",
          "name": "_endApplyTime",
          "type": "uint256"
        }
      ],
      "name": "createGrantProposal",
      "outputs": [],
      "stateMutability": "payable",
      "type": "function"
    },
    {
      "inputs": [],
      "name": "currentGrantId",
      "outputs": [
        {
          "internalType": "uint256",
          "name": "",
          "type": "uint256"
        }
      ],
      "stateMutability": "view",
      "type": "function"
    },
    {
      "inputs": [
        {
          "internalType": "uint256",
          "name": "grantProposalId",
          "type": "uint256"
        },
        {
          "internalType": "bytes32",
          "name": "randomNumber",
          "type": "bytes32"
        }
      ],
      "name": "endApplication",
      "outputs": [],
      "stateMutability": "payable",
      "type": "function"
    },
    {
      "inputs": [
        {
          "internalType": "uint256",
          "name": "grantId",
          "type": "uint256"
        },
        {
          "internalType": "uint256",
          "name": "projectId",
          "type": "uint256"
        }
      ],
      "name": "getGrantPropositionProjects",
      "outputs": [
        {
          "components": [
            {
              "internalType": "uint256",
              "name": "grantId",
              "type": "uint256"
            },
            {
              "internalType": "uint256",
              "name": "projectId",
              "type": "uint256"
            },
            {
              "internalType": "address[]",
              "name": "teams",
              "type": "address[]"
            },
            {
              "internalType": "string",
              "name": "title",
              "type": "string"
            },
            {
              "internalType": "string",
              "name": "description",
              "type": "string"
            },
            {
              "internalType": "uint256",
              "name": "creationTime",
              "type": "uint256"
            },
            {
              "internalType": "enum ProjectStatus",
              "name": "status",
              "type": "uint8"
            }
          ],
          "internalType": "struct ProjectGrantProposal",
          "name": "",
          "type": "tuple"
        }
      ],
      "stateMutability": "view",
      "type": "function"
    },
    {
      "inputs": [
        {
          "internalType": "uint256",
          "name": "",
          "type": "uint256"
        }
      ],
      "name": "grantPropositions",
      "outputs": [
        {
          "internalType": "uint256",
          "name": "id",
          "type": "uint256"
        },
        {
          "internalType": "string",
          "name": "title",
          "type": "string"
        },
        {
          "internalType": "string",
          "name": "description",
          "type": "string"
        },
        {
          "internalType": "uint256",
          "name": "numberSelectedProject",
          "type": "uint256"
        },
        {
          "internalType": "uint256",
          "name": "prize",
          "type": "uint256"
        },
        {
          "internalType": "uint256",
          "name": "creationTime",
          "type": "uint256"
        },
        {
          "internalType": "uint256",
          "name": "endApplyTime",
          "type": "uint256"
        },
        {
          "internalType": "uint256",
          "name": "numberSubmittedProject",
          "type": "uint256"
        },
        {
          "internalType": "address",
          "name": "owner",
          "type": "address"
        }
      ],
      "stateMutability": "view",
      "type": "function"
    },
    {
      "inputs": [],
      "name": "owner",
      "outputs": [
        {
          "internalType": "address",
          "name": "",
          "type": "address"
        }
      ],
      "stateMutability": "view",
      "type": "function"
    },
    {
      "inputs": [],
      "name": "renounceOwnership",
      "outputs": [],
      "stateMutability": "nonpayable",
      "type": "function"
    },
    {
      "inputs": [
        {
          "internalType": "uint256",
          "name": "grantProposalId",
          "type": "uint256"
        }
      ],
      "name": "selectProject",
      "outputs": [],
      "stateMutability": "nonpayable",
      "type": "function"
    },
    {
      "inputs": [
        {
          "internalType": "uint256",
          "name": "grantProposalId",
          "type": "uint256"
        },
        {
          "internalType": "uint256",
          "name": "projectId",
          "type": "uint256"
        }
      ],
      "name": "setEligibleProject",
      "outputs": [],
      "stateMutability": "nonpayable",
      "type": "function"
    },
    {
      "inputs": [
        {
          "internalType": "uint256",
          "name": "grantProposalId",
          "type": "uint256"
        }
      ],
      "name": "setEndTime",
      "outputs": [],
      "stateMutability": "nonpayable",
      "type": "function"
    },
    {
      "inputs": [
        {
          "internalType": "address",
          "name": "newOwner",
          "type": "address"
        }
      ],
      "name": "transferOwnership",
      "outputs": [],
      "stateMutability": "nonpayable",
      "type": "function"
    }
  ],
  "bytecode": "0x6080604052734821932d0cdd71225a6d914706a621e0389d7061600160006101000a81548173ffffffffffffffffffffffffffffffffffffffff021916908373ffffffffffffffffffffffffffffffffffffffff1602179055503480156200006657600080fd5b5033600073ffffffffffffffffffffffffffffffffffffffff168173ffffffffffffffffffffffffffffffffffffffff1603620000dd5760006040517f1e4fbdf7000000000000000000000000000000000000000000000000000000008152600401620000d4919062000206565b60405180910390fd5b620000ee81620000fd60201b60201c565b50600060028190555062000223565b60008060009054906101000a900473ffffffffffffffffffffffffffffffffffffffff169050816000806101000a81548173ffffffffffffffffffffffffffffffffffffffff021916908373ffffffffffffffffffffffffffffffffffffffff1602179055508173ffffffffffffffffffffffffffffffffffffffff168173ffffffffffffffffffffffffffffffffffffffff167f8be0079c531659141344cd1fd0a4f28419497f9722a3daafe3b4186f6b6457e060405160405180910390a35050565b600073ffffffffffffffffffffffffffffffffffffffff82169050919050565b6000620001ee82620001c1565b9050919050565b6200020081620001e1565b82525050565b60006020820190506200021d6000830184620001f5565b92915050565b612f6d80620002336000396000f3fe6080604052600436106100c25760003560e01c80637a1bb12f1161007f578063a593683d11610059578063a593683d14610240578063a77201fc14610269578063ccb98ffc14610292578063f2fde38b146102bb576100c2565b80637a1bb12f146101a757806384978a59146101ec5780638da5cb5b14610215576100c2565b806332dab267146100c75780634e5c31bc146100e357806352a5f1f8146100ff5780635bf35e66146101285780636929f49714610153578063715018a614610190575b600080fd5b6100e160048036038101906100dc9190611c27565b6102e4565b005b6100fd60048036038101906100f89190611ccc565b6107d7565b005b34801561010b57600080fd5b5061012660048036038101906101219190611e11565b610a1e565b005b34801561013457600080fd5b5061013d610b18565b60405161014a9190611e73565b60405180910390f35b34801561015f57600080fd5b5061017a60048036038101906101759190611e8e565b610b1e565b604051610187919061214c565b60405180910390f35b34801561019c57600080fd5b506101a5610d68565b005b3480156101b357600080fd5b506101ce60048036038101906101c9919061216e565b610d7c565b6040516101e3999897969594939291906121f4565b60405180910390f35b3480156101f857600080fd5b50610213600480360381019061020e919061216e565b610efa565b005b34801561022157600080fd5b5061022a611401565b604051610237919061228f565b60405180910390f35b34801561024c57600080fd5b5061026760048036038101906102629190611e8e565b61142a565b005b34801561027557600080fd5b50610290600480360381019061028b919061249d565b6115ec565b005b34801561029e57600080fd5b506102b960048036038101906102b4919061216e565b611813565b005b3480156102c757600080fd5b506102e260048036038101906102dd9190612558565b611832565b005b6002548210610328576040517f08c379a000000000000000000000000000000000000000000000000000000000815260040161031f906125d1565b60405180910390fd5b3373ffffffffffffffffffffffffffffffffffffffff166003600084815260200190815260200160002060080160009054906101000a900473ffffffffffffffffffffffffffffffffffffffff1673ffffffffffffffffffffffffffffffffffffffff16146103cc576040517f08c379a00000000000000000000000000000000000000000000000000000000081526004016103c39061263d565b60405180910390fd5b6000805b600360008581526020019081526020016000206007015481101561046a57600160068111156104025761040161202b565b5b60046000868152602001908152602001600020600083815260200190815260200160002060060160009054906101000a900460ff1660068111156104495761044861202b565b5b0361045d5781806104599061268c565b9250505b80806001019150506103d0565b50600360008481526020019081526020016000206003015481111561073d576000600160009054906101000a900473ffffffffffffffffffffffffffffffffffffffff1673ffffffffffffffffffffffffffffffffffffffff166382ee990c6040518163ffffffff1660e01b8152600401602060405180830381865afa1580156104f8573d6000803e3d6000fd5b505050506040513d601f19601f8201168201806040525081019061051c91906126e9565b90506000600160009054906101000a900473ffffffffffffffffffffffffffffffffffffffff1673ffffffffffffffffffffffffffffffffffffffff1663b88c9148836040518263ffffffff1660e01b815260040161057b919061228f565b602060405180830381865afa158015610598573d6000803e3d6000fd5b505050506040513d601f19601f820116820180604052508101906105bc919061275e565b6fffffffffffffffffffffffffffffffff1690506000600160009054906101000a900473ffffffffffffffffffffffffffffffffffffffff1673ffffffffffffffffffffffffffffffffffffffff166319cb825f8385886040518463ffffffff1660e01b815260040161063092919061279a565b60206040518083038185885af115801561064e573d6000803e3d6000fd5b50505050506040513d601f19601f8201168201806040525081019061067391906127d8565b905085600660008367ffffffffffffffff1667ffffffffffffffff1681526020019081526020016000208190555060405180608001604052808581526020016000801b81526020016001151581526020016000151581525060056000888152602001908152602001600020600082015181600001556020820151816001015560408201518160020160006101000a81548160ff02191690831515021790555060608201518160020160016101000a81548160ff0219169083151502179055509050505050506107d2565b60405180608001604052808281526020016000801b81526020016000151581526020016000151581525060056000858152602001908152602001600020600082015181600001556020820151816001015560408201518160020160006101000a81548160ff02191690831515021790555060608201518160020160016101000a81548160ff0219169083151502179055509050505b505050565b428111610819576040517f08c379a000000000000000000000000000000000000000000000000000000000815260040161081090612851565b60405180910390fd5b604051806101200160405280600254815260200187878080601f016020809104026020016040519081016040528093929190818152602001838380828437600081840152601f19601f82011690508083019250505050505050815260200185858080601f016020809104026020016040519081016040528093929190818152602001838380828437600081840152601f19601f820116905080830192505050505050508152602001838152602001348152602001428152602001828152602001600081526020013373ffffffffffffffffffffffffffffffffffffffff1681525060036000600254815260200190815260200160002060008201518160000155602082015181600101908161092e9190612a7d565b5060408201518160020190816109449190612a7d565b50606082015181600301556080820151816004015560a0820151816005015560c0820151816006015560e082015181600701556101008201518160080160006101000a81548173ffffffffffffffffffffffffffffffffffffffff021916908373ffffffffffffffffffffffffffffffffffffffff1602179055509050506002547f84b02e4dfe9ce03e8600abf5d755d6aa09edc185f29e7ebb148c2f469cedd6ce87876040516109f6929190612b7c565b60405180910390a260026000815480929190610a119061268c565b9190505550505050505050565b6000610a286118b8565b9050600073ffffffffffffffffffffffffffffffffffffffff168173ffffffffffffffffffffffffffffffffffffffff1603610a99576040517f08c379a0000000000000000000000000000000000000000000000000000000008152600401610a9090612bec565b60405180910390fd5b8073ffffffffffffffffffffffffffffffffffffffff163373ffffffffffffffffffffffffffffffffffffffff1614610b07576040517f08c379a0000000000000000000000000000000000000000000000000000000008152600401610afe90612c7e565b60405180910390fd5b610b128484846118e2565b50505050565b60025481565b610b26611ab1565b6004600084815260200190815260200160002060008381526020019081526020016000206040518060e0016040529081600082015481526020016001820154815260200160028201805480602002602001604051908101604052809291908181526020018280548015610bee57602002820191906000526020600020905b8160009054906101000a900473ffffffffffffffffffffffffffffffffffffffff1673ffffffffffffffffffffffffffffffffffffffff1681526020019060010190808311610ba4575b50505050508152602001600382018054610c07906128a0565b80601f0160208091040260200160405190810160405280929190818152602001828054610c33906128a0565b8015610c805780601f10610c5557610100808354040283529160200191610c80565b820191906000526020600020905b815481529060010190602001808311610c6357829003601f168201915b50505050508152602001600482018054610c99906128a0565b80601f0160208091040260200160405190810160405280929190818152602001828054610cc5906128a0565b8015610d125780601f10610ce757610100808354040283529160200191610d12565b820191906000526020600020905b815481529060010190602001808311610cf557829003601f168201915b50505050508152602001600582015481526020016006820160009054906101000a900460ff166006811115610d4a57610d4961202b565b5b6006811115610d5c57610d5b61202b565b5b81525050905092915050565b610d7061195e565b610d7a60006119e5565b565b6003602052806000526040600020600091509050806000015490806001018054610da5906128a0565b80601f0160208091040260200160405190810160405280929190818152602001828054610dd1906128a0565b8015610e1e5780601f10610df357610100808354040283529160200191610e1e565b820191906000526020600020905b815481529060010190602001808311610e0157829003601f168201915b505050505090806002018054610e33906128a0565b80601f0160208091040260200160405190810160405280929190818152602001828054610e5f906128a0565b8015610eac5780601f10610e8157610100808354040283529160200191610eac565b820191906000526020600020905b815481529060010190602001808311610e8f57829003601f168201915b5050505050908060030154908060040154908060050154908060060154908060070154908060080160009054906101000a900473ffffffffffffffffffffffffffffffffffffffff16905089565b6002548110610f3e576040517f08c379a0000000000000000000000000000000000000000000000000000000008152600401610f35906125d1565b60405180910390fd5b3373ffffffffffffffffffffffffffffffffffffffff166003600083815260200190815260200160002060080160009054906101000a900473ffffffffffffffffffffffffffffffffffffffff1673ffffffffffffffffffffffffffffffffffffffff1614610fe2576040517f08c379a0000000000000000000000000000000000000000000000000000000008152600401610fd99061263d565b60405180910390fd5b600060056000838152602001908152602001600020600001541161103b576040517f08c379a000000000000000000000000000000000000000000000000000000000815260040161103290612cea565b60405180910390fd5b6005600082815260200190815260200160002060020160009054906101000a900460ff161561131d576000600560008381526020019081526020016000206000015490506000808267ffffffffffffffff81111561109c5761109b6122aa565b5b6040519080825280602002602001820160405280156110ca5781602001602082028036833780820191505090505b50905060005b600360008681526020019081526020016000206007015481101561117c57600160068111156111025761110161202b565b5b60046000878152602001908152602001600020600083815260200190815260200160002060060160009054906101000a900460ff1660068111156111495761114861202b565b5b0361116f578082848151811061116257611161612d0a565b5b6020026020010181815250505b80806001019150506110d0565b506000600560008681526020019081526020016000206001015460001c905060005b600360008781526020019081526020016000206003015481101561131357600081866111ca9190612d39565b82846111d69190612d6d565b6040516020016111e69190612dc2565b6040516020818303038152906040528051906020012060001c6112099190612e0c565b905060008483815181106112205761121f612d0a565b5b602002602001015190508482846112379190612d6d565b8151811061124857611247612d0a565b5b602002602001015185848151811061126357611262612d0a565b5b6020026020010181815250508085838561127d9190612d6d565b8151811061128e5761128d612d0a565b5b6020026020010181815250506002600460008a815260200190815260200160002060008786815181106112c4576112c3612d0a565b5b6020026020010151815260200190815260200160002060060160006101000a81548160ff021916908360068111156112ff576112fe61202b565b5b02179055505050808060010191505061119e565b50505050506113fe565b60005b60036000838152602001908152602001600020600701548110156113fc57600160068111156113525761135161202b565b5b60046000848152602001908152602001600020600083815260200190815260200160002060060160009054906101000a900460ff1660068111156113995761139861202b565b5b036113ef57600260046000848152602001908152602001600020600083815260200190815260200160002060060160006101000a81548160ff021916908360068111156113e9576113e861202b565b5b02179055505b8080600101915050611320565b505b50565b60008060009054906101000a900473ffffffffffffffffffffffffffffffffffffffff16905090565b600254821061146e576040517f08c379a0000000000000000000000000000000000000000000000000000000008152600401611465906125d1565b60405180910390fd5b600360008381526020019081526020016000206007015481106114c6576040517f08c379a00000000000000000000000000000000000000000000000000000000081526004016114bd90612e89565b60405180910390fd5b3373ffffffffffffffffffffffffffffffffffffffff166003600084815260200190815260200160002060080160009054906101000a900473ffffffffffffffffffffffffffffffffffffffff1673ffffffffffffffffffffffffffffffffffffffff161461156a576040517f08c379a00000000000000000000000000000000000000000000000000000000081526004016115619061263d565b60405180910390fd5b600160046000848152602001908152602001600020600083815260200190815260200160002060060160006101000a81548160ff021916908360068111156115b5576115b461202b565b5b021790555080827f11a51aed1c9ebcd3f62baccb54bfa98e3f4ab31fb611175f50e70bf4e5655d7960405160405180910390a35050565b6002548410611630576040517f08c379a0000000000000000000000000000000000000000000000000000000008152600401611627906125d1565b60405180910390fd5b42600360008681526020019081526020016000206006015411611688576040517f08c379a000000000000000000000000000000000000000000000000000000000815260040161167f90612ef5565b60405180910390fd5b6000600360008681526020019081526020016000206007015490506003600086815260200190815260200160002060070160008154809291906116ca9061268c565b91905055506040518060e00160405280868152602001828152602001858152602001848152602001838152602001428152602001600060068111156117125761171161202b565b5b81525060046000878152602001908152602001600020600083815260200190815260200160002060008201518160000155602082015181600101556040820151816002019080519060200190611769929190611b00565b50606082015181600301908161177f9190612a7d565b5060808201518160040190816117959190612a7d565b5060a0820151816005015560c08201518160060160006101000a81548160ff021916908360068111156117cb576117ca61202b565b5b021790555090505080857fc42322ef0c4ddd1d276576be3d0acbe0d6648239c6b77ea3fc0254e275a7d5da856040516118049190612f15565b60405180910390a35050505050565b6000600360008381526020019081526020016000206006018190555050565b61183a61195e565b600073ffffffffffffffffffffffffffffffffffffffff168173ffffffffffffffffffffffffffffffffffffffff16036118ac5760006040517f1e4fbdf70000000000000000000000000000000000000000000000000000000081526004016118a3919061228f565b60405180910390fd5b6118b5816119e5565b50565b6000600160009054906101000a900473ffffffffffffffffffffffffffffffffffffffff16905090565b6000600660008567ffffffffffffffff1667ffffffffffffffff16815260200190815260200160002054905081600560008381526020019081526020016000206001018190555060016005600083815260200190815260200160002060020160016101000a81548160ff02191690831515021790555050505050565b611966611aa9565b73ffffffffffffffffffffffffffffffffffffffff16611984611401565b73ffffffffffffffffffffffffffffffffffffffff16146119e3576119a7611aa9565b6040517f118cdaa70000000000000000000000000000000000000000000000000000000081526004016119da919061228f565b60405180910390fd5b565b60008060009054906101000a900473ffffffffffffffffffffffffffffffffffffffff169050816000806101000a81548173ffffffffffffffffffffffffffffffffffffffff021916908373ffffffffffffffffffffffffffffffffffffffff1602179055508173ffffffffffffffffffffffffffffffffffffffff168173ffffffffffffffffffffffffffffffffffffffff167f8be0079c531659141344cd1fd0a4f28419497f9722a3daafe3b4186f6b6457e060405160405180910390a35050565b600033905090565b6040518060e0016040528060008152602001600081526020016060815260200160608152602001606081526020016000815260200160006006811115611afa57611af961202b565b5b81525090565b828054828255906000526020600020908101928215611b79579160200282015b82811115611b785782518260006101000a81548173ffffffffffffffffffffffffffffffffffffffff021916908373ffffffffffffffffffffffffffffffffffffffff16021790555091602001919060010190611b20565b5b509050611b869190611b8a565b5090565b5b80821115611ba3576000816000905550600101611b8b565b5090565b6000604051905090565b600080fd5b600080fd5b6000819050919050565b611bce81611bbb565b8114611bd957600080fd5b50565b600081359050611beb81611bc5565b92915050565b6000819050919050565b611c0481611bf1565b8114611c0f57600080fd5b50565b600081359050611c2181611bfb565b92915050565b60008060408385031215611c3e57611c3d611bb1565b5b6000611c4c85828601611bdc565b9250506020611c5d85828601611c12565b9150509250929050565b600080fd5b600080fd5b600080fd5b60008083601f840112611c8c57611c8b611c67565b5b8235905067ffffffffffffffff811115611ca957611ca8611c6c565b5b602083019150836001820283011115611cc557611cc4611c71565b5b9250929050565b60008060008060008060808789031215611ce957611ce8611bb1565b5b600087013567ffffffffffffffff811115611d0757611d06611bb6565b5b611d1389828a01611c76565b9650965050602087013567ffffffffffffffff811115611d3657611d35611bb6565b5b611d4289828a01611c76565b94509450506040611d5589828a01611bdc565b9250506060611d6689828a01611bdc565b9150509295509295509295565b600067ffffffffffffffff82169050919050565b611d9081611d73565b8114611d9b57600080fd5b50565b600081359050611dad81611d87565b92915050565b600073ffffffffffffffffffffffffffffffffffffffff82169050919050565b6000611dde82611db3565b9050919050565b611dee81611dd3565b8114611df957600080fd5b50565b600081359050611e0b81611de5565b92915050565b600080600060608486031215611e2a57611e29611bb1565b5b6000611e3886828701611d9e565b9350506020611e4986828701611dfc565b9250506040611e5a86828701611c12565b9150509250925092565b611e6d81611bbb565b82525050565b6000602082019050611e886000830184611e64565b92915050565b60008060408385031215611ea557611ea4611bb1565b5b6000611eb385828601611bdc565b9250506020611ec485828601611bdc565b9150509250929050565b611ed781611bbb565b82525050565b600081519050919050565b600082825260208201905092915050565b6000819050602082019050919050565b611f1281611dd3565b82525050565b6000611f248383611f09565b60208301905092915050565b6000602082019050919050565b6000611f4882611edd565b611f528185611ee8565b9350611f5d83611ef9565b8060005b83811015611f8e578151611f758882611f18565b9750611f8083611f30565b925050600181019050611f61565b5085935050505092915050565b600081519050919050565b600082825260208201905092915050565b60005b83811015611fd5578082015181840152602081019050611fba565b60008484015250505050565b6000601f19601f8301169050919050565b6000611ffd82611f9b565b6120078185611fa6565b9350612017818560208601611fb7565b61202081611fe1565b840191505092915050565b7f4e487b7100000000000000000000000000000000000000000000000000000000600052602160045260246000fd5b6007811061206b5761206a61202b565b5b50565b600081905061207c8261205a565b919050565b600061208c8261206e565b9050919050565b61209c81612081565b82525050565b600060e0830160008301516120ba6000860182611ece565b5060208301516120cd6020860182611ece565b50604083015184820360408601526120e58282611f3d565b915050606083015184820360608601526120ff8282611ff2565b915050608083015184820360808601526121198282611ff2565b91505060a083015161212e60a0860182611ece565b5060c083015161214160c0860182612093565b508091505092915050565b6000602082019050818103600083015261216681846120a2565b905092915050565b60006020828403121561218457612183611bb1565b5b600061219284828501611bdc565b91505092915050565b600082825260208201905092915050565b60006121b782611f9b565b6121c1818561219b565b93506121d1818560208601611fb7565b6121da81611fe1565b840191505092915050565b6121ee81611dd3565b82525050565b60006101208201905061220a600083018c611e64565b818103602083015261221c818b6121ac565b90508181036040830152612230818a6121ac565b905061223f6060830189611e64565b61224c6080830188611e64565b61225960a0830187611e64565b61226660c0830186611e64565b61227360e0830185611e64565b6122816101008301846121e5565b9a9950505050505050505050565b60006020820190506122a460008301846121e5565b92915050565b7f4e487b7100000000000000000000000000000000000000000000000000000000600052604160045260246000fd5b6122e282611fe1565b810181811067ffffffffffffffff82111715612301576123006122aa565b5b80604052505050565b6000612314611ba7565b905061232082826122d9565b919050565b600067ffffffffffffffff8211156123405761233f6122aa565b5b602082029050602081019050919050565b600061236461235f84612325565b61230a565b9050808382526020820190506020840283018581111561238757612386611c71565b5b835b818110156123b0578061239c8882611dfc565b845260208401935050602081019050612389565b5050509392505050565b600082601f8301126123cf576123ce611c67565b5b81356123df848260208601612351565b91505092915050565b600080fd5b600067ffffffffffffffff821115612408576124076122aa565b5b61241182611fe1565b9050602081019050919050565b82818337600083830152505050565b600061244061243b846123ed565b61230a565b90508281526020810184848401111561245c5761245b6123e8565b5b61246784828561241e565b509392505050565b600082601f83011261248457612483611c67565b5b813561249484826020860161242d565b91505092915050565b600080600080608085870312156124b7576124b6611bb1565b5b60006124c587828801611bdc565b945050602085013567ffffffffffffffff8111156124e6576124e5611bb6565b5b6124f2878288016123ba565b935050604085013567ffffffffffffffff81111561251357612512611bb6565b5b61251f8782880161246f565b925050606085013567ffffffffffffffff8111156125405761253f611bb6565b5b61254c8782880161246f565b91505092959194509250565b60006020828403121561256e5761256d611bb1565b5b600061257c84828501611dfc565b91505092915050565b7f494e56414c49445f4752414e545f50524f504f53414c5f494400000000000000600082015250565b60006125bb60198361219b565b91506125c682612585565b602082019050919050565b600060208201905081810360008301526125ea816125ae565b9050919050565b7f494e56414c49445f4752414e545f4f574e455200000000000000000000000000600082015250565b600061262760138361219b565b9150612632826125f1565b602082019050919050565b600060208201905081810360008301526126568161261a565b9050919050565b7f4e487b7100000000000000000000000000000000000000000000000000000000600052601160045260246000fd5b600061269782611bbb565b91507fffffffffffffffffffffffffffffffffffffffffffffffffffffffffffffffff82036126c9576126c861265d565b5b600182019050919050565b6000815190506126e381611de5565b92915050565b6000602082840312156126ff576126fe611bb1565b5b600061270d848285016126d4565b91505092915050565b60006fffffffffffffffffffffffffffffffff82169050919050565b61273b81612716565b811461274657600080fd5b50565b60008151905061275881612732565b92915050565b60006020828403121561277457612773611bb1565b5b600061278284828501612749565b91505092915050565b61279481611bf1565b82525050565b60006040820190506127af60008301856121e5565b6127bc602083018461278b565b9392505050565b6000815190506127d281611d87565b92915050565b6000602082840312156127ee576127ed611bb1565b5b60006127fc848285016127c3565b91505092915050565b7f494e56414c49445f454e445f4150504c595f54494d4500000000000000000000600082015250565b600061283b60168361219b565b915061284682612805565b602082019050919050565b6000602082019050818103600083015261286a8161282e565b9050919050565b7f4e487b7100000000000000000000000000000000000000000000000000000000600052602260045260246000fd5b600060028204905060018216806128b857607f821691505b6020821081036128cb576128ca612871565b5b50919050565b60008190508160005260206000209050919050565b60006020601f8301049050919050565b600082821b905092915050565b6000600883026129337fffffffffffffffffffffffffffffffffffffffffffffffffffffffffffffffff826128f6565b61293d86836128f6565b95508019841693508086168417925050509392505050565b6000819050919050565b600061297a61297561297084611bbb565b612955565b611bbb565b9050919050565b6000819050919050565b6129948361295f565b6129a86129a082612981565b848454612903565b825550505050565b600090565b6129bd6129b0565b6129c881848461298b565b505050565b5b818110156129ec576129e16000826129b5565b6001810190506129ce565b5050565b601f821115612a3157612a02816128d1565b612a0b846128e6565b81016020851015612a1a578190505b612a2e612a26856128e6565b8301826129cd565b50505b505050565b600082821c905092915050565b6000612a5460001984600802612a36565b1980831691505092915050565b6000612a6d8383612a43565b9150826002028217905092915050565b612a8682611f9b565b67ffffffffffffffff811115612a9f57612a9e6122aa565b5b612aa982546128a0565b612ab48282856129f0565b600060209050601f831160018114612ae75760008415612ad5578287015190505b612adf8582612a61565b865550612b47565b601f198416612af5866128d1565b60005b82811015612b1d57848901518255600182019150602085019450602081019050612af8565b86831015612b3a5784890151612b36601f891682612a43565b8355505b6001600288020188555050505b505050505050565b6000612b5b838561219b565b9350612b6883858461241e565b612b7183611fe1565b840190509392505050565b60006020820190508181036000830152612b97818486612b4f565b90509392505050565b7f456e74726f70792061646472657373206e6f7420736574000000000000000000600082015250565b6000612bd660178361219b565b9150612be182612ba0565b602082019050919050565b60006020820190508181036000830152612c0581612bc9565b9050919050565b7f4f6e6c7920456e74726f70792063616e2063616c6c20746869732066756e637460008201527f696f6e0000000000000000000000000000000000000000000000000000000000602082015250565b6000612c6860238361219b565b9150612c7382612c0c565b604082019050919050565b60006020820190508181036000830152612c9781612c5b565b9050919050565b7f4e4f5f454c494749424c455f50524f4a45435453000000000000000000000000600082015250565b6000612cd460148361219b565b9150612cdf82612c9e565b602082019050919050565b60006020820190508181036000830152612d0381612cc7565b9050919050565b7f4e487b7100000000000000000000000000000000000000000000000000000000600052603260045260246000fd5b6000612d4482611bbb565b9150612d4f83611bbb565b9250828203905081811115612d6757612d6661265d565b5b92915050565b6000612d7882611bbb565b9150612d8383611bbb565b9250828201905080821115612d9b57612d9a61265d565b5b92915050565b6000819050919050565b612dbc612db782611bbb565b612da1565b82525050565b6000612dce8284612dab565b60208201915081905092915050565b7f4e487b7100000000000000000000000000000000000000000000000000000000600052601260045260246000fd5b6000612e1782611bbb565b9150612e2283611bbb565b925082612e3257612e31612ddd565b5b828206905092915050565b7f494e56414c49445f50524f4a4543545f49440000000000000000000000000000600082015250565b6000612e7360128361219b565b9150612e7e82612e3d565b602082019050919050565b60006020820190508181036000830152612ea281612e66565b9050919050565b7f4e4f5f4d4f52455f4150504c49434154494f4e00000000000000000000000000600082015250565b6000612edf60138361219b565b9150612eea82612ea9565b602082019050919050565b60006020820190508181036000830152612f0e81612ed2565b9050919050565b60006020820190508181036000830152612f2f81846121ac565b90509291505056fea26469706673582212208b50ebd2bd8a246588e90c0c69608ad7f54ba774516bbad668ee01cfe466df9b64736f6c63430008180033",
  "linkReferences": {},
  "deployedLinkReferences": {}
}